:020000040800F2
:10000000000003205D060008552200085722000862
:10001000592200085B2200085D2200080000000051
:10002000000000000000000000000000615E000809
:100030005F22000800000000F15E00086957000818
:10004000AD060008AD060008AD060008AD060008C4
:10005000AD060008AD060008AD060008AD060008B4
:10006000AD060008AD060008AD060008AD060008A4
:10007000AD060008AD060008AD060008AD06000894
:10008000AD060008AD060008AD060008AD06000884
:10009000AD060008AD060008AD060008AD06000874
:1000A000AD060008AD060008AD060008AD06000864
:1000B000AD060008AD060008AD060008AD06000854
:1000C000AD060008AD060008AD060008AD06000844
:1000D000AD060008AD060008AD060008AD06000834
:1000E000AD060008AD060008AD060008AD06000824
:1000F000AD060008AD060008AD060008AD06000814
:10010000AD060008AD060008AD060008AD06000803
:10011000AD060008AD06000861220008AD06000823
:10012000AD060008AD060008AD060008AD060008E3
:10013000AD060008AD060008AD060008AD060008D3
:10014000AD060008AD060008AD060008AD060008C3
:10015000AD060008AD060008AD060008AD060008B3
:10016000AD060008AD060008AD060008AD060008A3
:10017000AD060008AD060008AD060008000000004E
:10018000AD060008AD060008AD060008AD06000883
:10019000AD060008AD060008AD060008AD06000873
:0C01A0006D220008AD060008792200085E
:1001B00010B5054C237833B9044B13B10448AFF3A1
:1001C00000800123237010BD800300200000000088
:1001D0004C17020808B5034B1BB103490348AFF3A2
:1001E000008008BD00000000840300204C170208B6
:1001F00001F0FF01102A2BDB10F0070F08D010F8D8
:10020000013B013A8B422DD010F0070F42B3F6D1DB
:10021000F0B441EA012141EA014122F007047FF0F4
:1002200000070023F0E80256083C85EA010586EA4B
:10023000010685FA47F5A3FA87F586FA47F6A5FA87
:1002400087F68EB9EED1F0BC01F0FF0102F0070293
:1002500032B110F8013B013A83EA010313B1F8D13E
:100260000020704701387047002D06BF354603381F
:10027000073815F0010F07D1013015F4807F02BF58
:10028000013015F4C03F0130F0BC0138704700BFA9
:100290007BB972B90029BEBF00204FF0004106E0D3
:1002A00008BF00281CBF6FF000414FF0FF3000F086
:1002B000D3B9ADF1080C6DE904CE002909DB002BA0
:1002C0001ADB00F04DF8DDF804E0DDE9022304B0AC
:1002D0007047404261EB4101002B1BDB00F040F80E
:1002E000DDF804E0DDE9022304B0404261EB4101A6
:1002F000524263EB43037047524263EB430300F007
:100300002FF8DDF804E0DDE9022304B0404261EBA0
:1003100041017047524263EB430300F021F8DDF8DE
:1003200004E0DDE9022304B0524263EB430370476B
:1003300053B94AB9002908BF00281CBF4FF0FF314C
:100340004FF0FF3000F088B9ADF1080C6DE904CE34
:1003500000F006F8DDF804E0DDE9022304B07047A0
:100360002DE9F047089D8E4604468846002B4AD169
:100370008A42174662D9B2FA82F64EB1C6F120031C
:1003800001FA06F820FA03F3B74043EA0808B4403C
:100390004FEA174E1FFA87FCB8FBFEF1230C0EFB49
:1003A000118843EA084301FB0CF29A4209D9FB1871
:1003B00001F1FF3080F0EA809A4240F2E780023992
:1003C0003B449A1AA3B2B2FBFEF00EFB102243EAA2
:1003D000024300FB0CFC9C4509D9FB1800F1FF32DD
:1003E00080F0D6809C4540F2D3803B44023840EAFE
:1003F0000140A3EB0C0300211DB1F3400022C5E92D
:100400000032BDE8F0878B4205D90DB1C5E9000186
:1004100000210846F5E7B3FA83F1002946D1734578
:1004200002D3824200F20581841A6EEB030201209E
:100430009046002DE5D0C5E90048E2E7002A00F02B
:100440009080B2FA82F6002E40F0A4808A1A030C43
:100450004FEA174E80B2BCB20121B2FBFEFC0EFB8C
:100460001C2243EA024304FB0CF29A4207D9FB1810
:100470000CF1FF3802D29A4200F2E080C4469B1A87
:10048000B3FBFEF20EFB123340EA034302FB04F41B
:100490009C4207D9FB1802F1FF3002D29C4200F2C5
:1004A000CA8002461B1B42EA0C40A5E7C1F12006A8
:1004B0008B4022FA06F71F430EFA01F420FA06F3E6
:1004C0002EFA06FE4FEA1749234300FA01F81FFAF5
:1004D00087FCBEFBF9F01C0C09FB10EE44EA0E444D
:1004E00000FB0CFEA64502FA01F209D93C1900F105
:1004F000FF3A80F09C80A64540F2998002383C4447
:10050000A4EB0E041FFA83FEB4FBF9F309FB1344BA
:100510004EEA044403FB0CFCA44508D93C1903F142
:10052000FF3E80F08280A4457FD9023B3C4443EAF1
:100530000040A4EB0C04A0FB02EC64457346E146CA
:1005400062D35FD05DB1B8EB030264EB090404FA37
:1005500006F622FA01F31E43CC40C5E900640021EF
:100560004FE7B1FBF2FC010C41EA0E4180B240EAD8
:1005700001423B4638463C46B846BE462026B1FBC3
:10058000F7F1A2EB080241EA0C4166E7014618E7E1
:1005900010462CE7C6F120022EFA02F3B740B14014
:1005A00020FA02F24FEA174E0A43B3FBFEF8BCB240
:1005B0000EFB1833110C41EA034108FB04F9B0406B
:1005C00089454FEA104380B23ED9791808F1FF3CC3
:1005D00001D289451FD8A1EB0901B1FBFEF909FB46
:1005E00004F80EFB191192B242EA0142424529D2A7
:1005F000BA1809F1FF31C4D24245C2D2A9F10201B1
:100600003A44BEE7F0459DD2BEEB02036CEB070C0B
:100610000138E14696E7A7EB09094944A8F1020C25
:10062000B1FBFEF909FB04F8DBE773467FE75046B0
:1006300066E70846FDE63B44023A33E7ACF1020CBC
:100640003B441CE749469CE7A1EB0901C446B1FBCA
:10065000FEF909FB04F8C4E7704700BFDFF834D0A7
:10066000002103E00C4B5B58435004310B480C4B0A
:1006700042189A42F6D30B4A02E0002342F8043BA8
:10068000094B9A42F9D302F0F1FD20F0F1FA01F0A2
:100690007DF8704700000320E0D705080000002027
:1006A0006401002080030020C0330120FEE7704772
:1006B00008B500F0BBFDBDE8084000F03FBD00F00C
:1006C000B7BD704710B5042104461FF0A2F82046BC
:1006D00010BD000038B50C4B0C4C18800C4B822020
:1006E00019806368984740F6110398420AD1094D72
:1006F00023682C60822098472B688220DB6898470B
:10070000002038BD0120FCE7A60300204C0000209B
:10071000A4030020A80300204FF4A071F020FFF7ED
:10072000D9BF0000F7B5394D2B6804461B698220FC
:100730009847208000284ED02B680DF106025B6997
:1007400001A982209847324B1B78002B4BD0BDF873
:10075000062040F674639A423FD9ADF80630BDF8E2
:1007600006209B1A9BB20A2B42D90B22B3FBF2F351
:10077000284A1288934201D9013A93B2BDF8042065
:10078000254840F6B8318A4234D8C2F571620E323B
:10079000016892B20F25B2FBF5F2204D2D88AA42D6
:1007A00084BF05F1FF35AAB28A4215468EB22AD916
:1007B000921B91B21A4E3768BB42BAB28CBF9A1ADA
:1007C000D21A92B211440529C4BF05603360036890
:1007D00063803368A38003B0F0BDB32A9CBFB4220A
:1007E000ADF80620BBE7BDF80630A3F5B473B9E752
:1007F0000023C3E7C2F56D62083292B20E2A016887
:10080000C8D800252A46891A89B2D3E7A803002050
:100810003C160020A4030020A0030020A603002013
:100820009C03002037B568460D461446FFF77AFF53
:10083000BDF8000030B1BDF802302B60BDF80430C7
:100840002360012003B030BD032821D8DFE800F089
:10085000020B12190F4B1A68B2FA82F252090421E4
:100860000D4802F097BF0B4B5A68B2FA82F2520958
:100870000821F5E7074B9A68B2FA82F25209102173
:10088000EEE7044BDA68B2FA82F252092021E7E778
:10089000704700BFAC03002000100240032821D89D
:1008A000DFE800F0020B12190F4B1A68003A18BF6C
:1008B000012204210D4802F06DBF0B4B5A68003A2B
:1008C00018BF01220821F5E7074B9A68003A18BFC4
:1008D00001221021EEE7044BDA68003A18BF01222A
:1008E0002021E7E7704700BFAC0300200010024062
:1008F00003280DD8DFE800F00206080A04210548A5
:1009000002F04DBF0821FAE71021F8E72021F6E7B1
:10091000704700BF0010024008B5032811D8DFE877
:1009200000F0020A0C0E0421074802F02DFF431EBE
:100930005842584108BD0821F6E71021F4E720216C
:10094000F2E70020F3E700BF0010024070B5084D49
:1009500000240126E0B2FFF7DFFF18B12B68012B5E
:1009600018BF2E600134052C05F10405F2D170BDCD
:10097000AC030020012380F8781080F879307047AC
:100980007047002070470000034B4164003918BFD6
:1009900001211970704700BF7F2601207047002099
:1009A0007047836B0BB10846184770474FF6FF70CE
:1009B0007047406803689B691847704770477047E5
:1009C0007047704710B5044600F048FD236803499E
:1009D000D3F890302046BDE810401847000000D002
:1009E00008B503680446D3F8843098472368204646
:1009F000DB6F984700F0ECF8236820465B6F984760
:100A0000292001F047F900F0E3F8236820465B6FE6
:100A10009847F8E710B5044608F03AF823682046EE
:100A2000D3F8BC30BDE81040184700F0FBBC00F024
:100A3000FFBC00F031BD00F0D1BC00F041BD00F0C2
:100A400049BD00F0D5BC07F051BA10B58421044669
:100A50001EF0DFFE204610BD10B590F8341090F85F
:100A600078400C4B8C421A7809D03AB90A4A0B49A3
:100A70001488088810800C8001221A7010BD002A8A
:100A8000FCD0054A05491488088810800C80002293
:100A9000F3E700BF78260120742601207626012086
:100AA00070B50D46194635B9094B0A4A0A4840F255
:100AB000FF211FF02DFEC0E90F52084B003A18BF6E
:100AC00001221A700368BDE87040D3F890301847CF
:100AD000BC170208F4170208421802087E260120FB
:100AE00008B5094B1B888B4203D8084B1B889342DF
:100AF00005D9074B074A0848A3211FF009FE074BF9
:100B00001980074B1A8008BD742601207626012023
:100B100087180208EA180208421802087A260120FB
:100B20007C260120034690F87A0018B158680368C3
:100B30001B68184770470000012108B500220846CD
:100B400004F09CFE0A4B186028B90A4B0A4A282177
:100B50000A481FF0DDFD00220421012004F036FFC9
:100B6000074B186018B9074B034A2C21F0E708BD62
:100B7000C00300202D19020876190208A5190208E1
:100B8000BC030020DF190208024B4FF0FF31186848
:100B900004F0BEBEC0030020014B186804F0E4BEA0
:100BA000C0030020024B0021186804F0B1BE00BF52
:100BB000C0030020FFF7F0BF03480449006800238A
:100BC0001A4604F03EBF00BFBC0300200400002012
:100BD00013B5084C00231A4601A9206804F062FFEF
:100BE00020684FF0FF33002201A904F05BFF02B040
:100BF00010BD00BFBC03002003685B6C18470120D8
:100C0000704703689B6A1847FEE740F2EF30704771
:100C1000054B0360054B4FF08062C3F88820BFF39B
:100C20004F8FBFF36F8F7047B822020800E100E0DA
:100C300010B504464FF45A61FFF7EAFF20461EF054
:100C4000E8FD204610BD000082B0002301930E4B4A
:100C50001A6B42F400021A631A6B02F4000201924A
:100C6000019A1A6942F400021A611A6922F4000218
:100C70001A61064B064A1A61064A5A61064B4FF042
:100C800080629A6002B0704700380240D01700209E
:100C9000E90E0008090C000800E100E008B50A2888
:100CA00009D8DFE800F006100E0808080810101038
:100CB0001000022008BD054B054A064890211FF090
:100CC00027FD0020F6E70120F4E700BF211A020803
:100CD0003C1A0208871A020838B50C46887FFFF7CD
:100CE000DDFFA58AE28A164B2169586342EA054274
:100CF0005A64628BD963521B1A642568082D0ED181
:100D00009A611A615862207F0E4A42EA0062DA61F3
:100D1000E2681A620C4A5961D9601A6038BD002233
:100D2000D8611A61E1680A0A480902F4784200F4BD
:100D3000FC600243C1F3C4010A439A63034AECE72F
:100D400000B002400900010001230200012303005A
:100D500008B50B280BD8DFE800F00612100A0A0AC3
:100D60000A0808080808022008BD0520FCE7054B12
:100D7000054A06486F211FF0CBFC0020F4E7012054
:100D8000F2E700BF211A0208BF1A0208871A0208F8
:100D90002DE9F04191F81D800C464046FFF7D8FF41
:100DA000A77F05463846FFF7D3FF06463846FFF7CC
:100DB00075FFA18A628B444B521A1A649A61228B86
:100DC000521A1A61E28A586342EA01425A6421695E
:100DD0006268D963DA602068802828D0227F0FD823
:100DE000202867D0402865D004281AD0364B45EA21
:100DF000026545F40035B845DD6161D0334A44E011
:100E0000B0F5807F04D0B0F5007FEFD1304800E02E
:100E1000304840EA0262DA61E2681A625E62596151
:100E200032E045EA026242F40032DA61F6E7A06895
:100E3000021DDA62227F45EA026545F40035DD6174
:100E40005E625961017841B1012921D0224B234AC8
:100E500023484FF48D711FF05BFCDA69418822F45E
:100E60007F42013922F0100242EA0122DA610121B7
:100E7000154BDA6942F02002DA61DA699206FCD495
:100E800010229A600029B9D0164A1A60BDE8F08194
:100E9000B2F1FF01DA69408822F47F4200F1FF30AD
:100EA00022F0100242EA002242F0100218BF012193
:100EB000DA61DDE745EA0262034B42F40032B4E74F
:100EC00042F20132E1E700BF00B00240012301001D
:100ED000090002000A000200091B0208231B020885
:100EE000871A020801230200024B1B685868036836
:100EF0005B6918478026012070B5044625460A4BD9
:100F00000C30002660602672667245F8203B602235
:100F1000294607F013FF04F55A63EE6024359D421D
:100F2000FBD1204670BD00BFB8220208034B1A68EF
:100F3000D207FCD423229A60704700BF00B0024061
:100F40007047000030B50F4C2568ED07FCD4232511
:100F50000904A56041F001010225FF2B656361646E
:100F6000E0630AD00849656241EA0363E361074B25
:100F700022626061E060236030BDE561039BA36392
:100F8000034BF8E700B00240090001000100020035
:100F90000100030030B50E4C2568ED07FCD4232575
:100FA0001204A56042F001020225FF2B6563626412
:100FB000E063E16008D01B0643F00213E361054BD8
:100FC00065626061236030BD034BE3610123F9E793
:100FD00000B0024001000200020002FF30B50B4CDD
:100FE0002568ED07FCD4232512041B06A56043F4F5
:100FF0000033022542F0010265636264E063E16050
:10100000E361034B65626061236030BD00B0024064
:1010100001000200012070470C2070470C2303FBE5
:101020000100083070470C2303FB010008307047B3
:10103000012070474FF4967070474FF4967303FB8E
:101040000100083070474FF4967303FB010008302D
:101050007047012070471020704700EB01100830E6
:10106000704700EB011008307047084601F0F6BAEF
:1010700010B5034B0360044606F08DFC204610BDFE
:101080007023020810B50446FFF7F2FF2046142132
:101090001EF0BFFB204610BD10B5034B0360044695
:1010A00006F079FC204610BD3C23020810B504462A
:1010B000FFF7F2FF20464FF49A711EF0AAFB20467C
:1010C00010BD000010B5034B0360044606F063FC3E
:1010D000204610BD0823020810B50446FFF7F2FFB2
:1010E000204618211EF095FB204610BD10B5084B78
:1010F0000360044600F5B070FFF7BAFF04F12C005E
:10110000FFF7CAFF04F11400FFF7DCFF204610BD13
:10111000A423020808B50248FFF7E8FF08BD00BF96
:101120009C12002010B50446FFF7E0FF20464FF464
:1011300035711EF06EFB204610BD00002DE9F34115
:1011400001F00EF9054601F00FF90024014623468F
:101150002846224600940FF0C9FA274B274A1A6006
:10116000204601F0E3FC264D264B274A27489A608B
:101170000FF024FA2B68BFF35B8FDB0735D42846CA
:101180001EF049FB88B3224C224B236004F5BC7649
:1011900004F1140004F12C0804F5B0776060C4F881
:1011A0000880E760266106F0F7FB1B4B6361404651
:1011B00006F0F2FB194BE362384606F0EDFB184BE4
:1011C000C4F8603104F5BA7001F026FD224604F53A
:1011D000BA71304601F016FD304601F03FFA114871
:1011E0001FF0B4FA28461EF022FB0F4802B0BDE8FB
:1011F000F041FFF7E7BB00BFE426012048040020D0
:1012000098120020680400204C04002008000020F0
:101210009C120020A4230208082302083C23020891
:101220007023020815110008C40300207047000055
:101230000148FFF7D5BB00BFC403002070B5264EA0
:10124000264C274D274B23603046FFF755FE284696
:1012500014F052FB24480DF0C3F9244B2448DC6001
:1012600000224FF48071C3E9121222491A86C3E9A1
:101270001A12214983F85820C3E91E011F49C3F8F7
:1012800080101F491F480B60F021C3E90422C3E905
:101290000622C3E90822C3E90A22C3E90E22C3E9F0
:1012A0001022C3E91422C3E917225A6683F870207A
:1012B0005A67C3E9016501801348018013484FF460
:1012C000A07101801248018012490A70012283F83E
:1012D0003420114A1A6070BDF404002094120020DA
:1012E00068040020AC1702084C040020C40300204E
:1012F0000000010101000001000450001A00140068
:1013000080260120742601207A26012076260120DD
:101310007C26012078260120CC2102080148FFF715
:1013200077BC00BFF4040020002070478180704724
:10133000C180704701817047418170477047704795
:1013400070477047704710B4C4880368121B8488C4
:101350005B6D091B12B25DF8044B09B218474FF6DA
:10136000FF7383814FF0FF3303621368C361106022
:101370007047002070478B8883800120704770473A
:1013800080F82610704790F82600704710B50022AC
:10139000B1F90840B1F90A10028042808480C1800E
:1013A00010BD0022028042808280C2807047017797
:1013B000704780ED080A704780F82410704780F865
:1013C0002510704701207047983070478C30704767
:1013D000843070477047704770470000034B90227D
:1013E00083F85A2383F85823704700BF00E100E0D8
:1013F000094A0A49D3680A48C3F30A03013B9BB26E
:101400000B801169C1F30A01013901801364536B28
:1014100043F00103536370470068014072150020D8
:1014200070150020014BD3F8AC00704700680140F4
:10143000024B0122C3F8AC105A62704700680140A9
:1014400010B52C2104461EF0E4F9204610BD10B55D
:10145000BC2104461EF0DDF9204610BD70B50446DF
:1014600006F099FD23689D6E0BF052FE0146204662
:10147000A8472368054AD3F88C502046AC46002381
:10148000BDE87040A2F51631604700BF00B004D03F
:1014900006F068BD06F072BD06F02EBD06F09DBEDA
:1014A00090F8252012B103685B691847704790F8DF
:1014B00025201AB190F8242002B11860704700006E
:1014C000034B4FF080629A604FF080729A607047D1
:1014D00000E100E0084B4FF08062C3F88820BFF3C2
:1014E0004F8FBFF36F8F4FF08072C3F88820BFF328
:1014F0004F8FBFF36F8F704700E100E070B500239E
:10150000124E8380124B0360336893F858200546CF
:101510000AB1D86C00B998680368DB6A98473368E9
:10152000B0FA80F4D86C640930B10368DB6A98477C
:10153000002808BF44F001042CB9064B064A0748AE
:101540002C211FF0E5F8284670BD00BF8026012041
:10155000B8230208611B0208BF1B0208F81B02081F
:1015600070B5254E3568BFF35B8F15F0010540D18E
:1015700030461EF050F900283BD0204C204B25610E
:1015800004F13400C4E90035C4E90255E584A562DC
:10159000A5850DF00AFB04F1580009F085F8194BF8
:1015A000A3652046184B40F8843BFFF7A7FF174B75
:1015B000C4F884302433C4F88C304FF4C803C4E931
:1015C00028350023C4F8AC30C4F8B030C4F8B430C7
:1015D000C4F8B8300E480F4BC4F89050C4F89C5073
:1015E000C4F8A850C4F898301FF0B0F830461EF088
:1015F0001EF9024870BD00BF741500207815002048
:1016000094280208D8230208502402084828020817
:10161000D91300082828020838B5184C23685BB392
:10162000174B184A1B6C11888B4216D1164B198820
:1016300002F0B8FE236893F86A200025013283F88F
:101640006A2083F87C50FFF7B7FA206807F020FA89
:101650002846BDE83840FFF7F7B802F0A3FE24683B
:10166000236820461B6A9847012384F87C300020B9
:10167000BDE83840FFF712B938BD00BF8026012011
:1016800000680140721500207015002007B5064B58
:10169000ADF806001B68054801220DF1060103F0B4
:1016A00021FC03B05DF804FB0C0000207C16002038
:1016B00037B50D4D0D4C0121284602F065F8012883
:1016C0000ED1206804F01EFA012809D850238DF8A5
:1016D000073020680A2300220DF1070104F0B1F958
:1016E000012004F0BFF8E6E70000024038160020B1
:1016F00030B595B0102200210AA81FF010FA14226C
:10170000002103A81FF00BFA00241E4B01941A6C51
:1017100042F080521A641B6C03F080530193019BCA
:10172000194B02941A6842F440421A601B6803F491
:10173000404302930122029B4FF48033CDE90823FA
:1017400002254FF480030821CDE90E534FF4B47302
:10175000CDE9101308A804231393129502F07AFE22
:1017600002F03EFE0F23CDE903354FF4A0504FF4B5
:101770008053CDE90603052103A8059403F046F83C
:1017800015B030BD003802400070004080B59AB0FE
:1017900001F07AFDFFF7ACFF142200210DA81FF025
:1017A000BEF90024C84B00941A6BC848C84DDFF836
:1017B0005C8342F010021A631A6B02F0100200926E
:1017C000009A01941A6B42F020021A631A6B02F01D
:1017D00020020192019A02941A6B42F080021A636D
:1017E0001A6B02F080020292029A03941A6B42F082
:1017F00004021A631A6B02F004020392039A04941F
:101800001A6B42F001021A631A6B02F00102049291
:10181000049A05941A6B42F002021A631A6B02F0E2
:1018200002020592059A06941A6B42F040021A636E
:101830001A6B02F040020692069A07941A6B42F065
:1018400008021A631B6B03F00803224607933C212E
:10185000079B01F09FFF9F480122022101F09AFFA0
:1018600022469C48042101F095FF22469A484FF4F5
:10187000405101F08FFF01263C23CDE90D369348FE
:101880000F9403230DA90227109301F099FE9148AC
:101890000DA9CDE90D76CDE90F4401F091FE0423A9
:1018A0008C480DA9CDE90D36CDE90F4701F088FE32
:1018B0004FF4405388480DA9CDE90D36CDE90F47C7
:1018C00001F07EFE0DA985480F94CDE90D6401F06D
:1018D00077FE8348834B036001F068FDDFF830E258
:1018E000814B2C62C5E900E328464FF48043C5E9EB
:1018F0000434C5E90244C5E9064402F059F910214F
:10190000284602F09DFB21462846784D02F0B7FBA1
:101910004FF48273C5E900834FF400791823C5E9B9
:10192000069328460A23C5E90244C5E90444C5E9EB
:101930000844AC62EB6203F079FA8F232246394601
:1019400064488DF824308DF8344001F023FF32468E
:101950004FF47A7309A9284603F0C4FA4FF47A7356
:1019600032460DA9284603F069FC324639465948EB
:101970005F4D01F00FFF9DF83430D32B04BF5D4B5A
:101980001E705D4B0126C5E900361022402300245D
:10199000C5E904234FF4C073C5E906344FF400636E
:1019A000C5E908344FF4005302274FF00409AB6235
:1019B0004FF0030A07230DA92846CDE90D73CDE9A1
:1019C0000F934FF00808C5E90249CDE911A7139715
:1019D00003F010F94FF6FF7209A92846CDE90A86EF
:1019E000089409960C9403F025F9304601F078FC30
:1019F0004FF6FF7209A92846CDE90978CDE90B64B5
:101A000003F018F94FF6FF7209A92846CDE909A895
:101A1000CDE90B9403F00EF94FF40C730893089B77
:101A20000C934FF6FF7209A92846CDE909980B9649
:101A300003F000F940F26A51284603F019F9342204
:101A40000DEB020021461FF06AF82C4D2C4B2C6147
:101A5000C5E900340923C5E905361D23C5E9073A60
:101A600040F20D1140F24313C5E9091340F217107B
:101A700040F24713C5E90B032846C5E90244AC868A
:101A800085F8364002F096FBFF214FF4806CF0227F
:101A9000CDE912140521CDE914C14FF4A0730DA9AD
:101AA000CDE90E24CDE9164228462246154D18935D
:101AB000CDE910370D94ADF864408DF8664002F022
:101AC00044FC114B2B6025E000380240001002401E
:101AD0007C17002000080240000C02400000024079
:101AE0001018002000300240A08601007C16002063
:101AF000481600203C160020400100A0D41600200B
:101B000000680140341600201400002000500140FD
:101B1000005C00401B6898472B68184DDB689847AD
:101B2000174B2846C5E90034C5E90274C5E90A47E0
:101B3000C5E90C4401F04AFC3146284601F0FCFCA2
:101B4000FEF7B6FDFEF7B3FD03F01CFE0D4A31466D
:101B5000404603F03BFF0C4B0C4A186021460C48F2
:101B600003F03CFE0B4B0C4A186021460B4803F077
:101B700035FE0B4B186003F017FEFEE7D017002070
:101B800000B002409424020838160020D024020835
:101B9000B116000844160020AC240208BF06000855
:101BA00040160020704770477FB5094B8DF817200D
:101BB0001B6802930DF117020123009201930A465C
:101BC0000146044802F09CF807B05DF804FB00BF32
:101BD000100000207C1700207FB500238DF81730FF
:101BE000084B1B6802930A4601230DF1170100916F
:101BF00001930146044802F013F99DF8170007B05D
:101C00005DF804FB100000207C1700201FB5084C75
:101C100024680092CDE901340A46012301460548B3
:101C200002F0FEF8003818BF012004B010BD00BF5C
:101C3000100000207C17002001F052BB10B5064CAC
:101C400000222046042101F0A5FD20460122BDE826
:101C50001040042101F09EBD0008024038B50B4D34
:101C6000044601220A484FF4005101F093FD00227E
:101C70000421284601F08EFD2046FFF707FD284687
:101C80000122BDE83840042101F084BD0008024073
:101C9000000C024038B50B4D044600220A484FF4B0
:101CA000005101F077FD00220421284601F072FD69
:101CB0002046FFF7EBFC28460122BDE8384004210E
:101CC00001F068BD00080240000C0240F7B5144E58
:101CD000144F05460C4630460022042101F05AFDFF
:101CE00000224FF40051384601F054FD2846FFF71A
:101CF000CDFC0D4B0D481B68224601A903F09EFA4E
:101D0000384601224FF40051019C01F043FD30465A
:101D10000122042101F03EFD204603B0F0BD00BFCA
:101D200000080240000C02400C0000207C1600203D
:101D300001F0D6BA0268034B9A4201D101F0BEBA53
:101D4000704700BF001000407047000082B00E4B8B
:101D500000220092596C41F480415964596C01F49D
:101D60008041009100990192196C41F080511964F1
:101D70001B6C03F080530193019B0F216FF0010056
:101D800002B001F0D3BA00BF003802400268094B2C
:101D90009A4282B00BD100230193074B1A6B42F495
:101DA00080521A631B6B03F480530193019B02B0B2
:101DB000704700BF003002400038024007B50F4BAB
:101DC00002689A4216D10022A3F5F0430192196BE2
:101DD00041F4000119631B6B03F400030193052117
:101DE0005A20019B01F0A2FA5A2003B05DF804EBDF
:101DF00001F0CEBA03B05DF804FB00BF00B00240B2
:101E00002DE9F043044689B01422002103A81EF0F6
:101E100086FE2268244B9A4243D1244C2448002554
:101E20000095236B43F004032363236B03F0040347
:101E30000093009B0195236B43F001032363236B05
:101E400003F001030193019B4FF012094FF400735B
:101E50004FF001080327042603A9CDE90339CDE992
:101E60000587079601F0ACFB4FF480731148079685
:101E700003A9CDE90339CDE9058701F0A1FB02955E
:101E8000236C43F400032364236C03F400030293E4
:101E9000029B236A43F400032362236A23F40003B2
:101EA000236209B0BDE8F083005C004000380240C6
:101EB0000008024000000240F0B599B00446142228
:101EC000002107A81EF02BFE30220DEB020000219E
:101ED0001EF025FE22685E4B9A4240F0B780082330
:101EE0000C93C0231093042312930CA84FF40033D7
:101EF000159302F053FD08B1FFF726FF554B5648E6
:101F0000002400945A6C42F080625A645A6C02F0C9
:101F100080620092009A01941A6B42F020021A63C8
:101F20001A6B02F020020192019A02941A6B42F09D
:101F300001021A631A6B02F001020292029A0394E0
:101F40001A6B42F002021A631A6B02F00202039249
:101F5000039A04941A6B42F040021A631A6B02F05F
:101F600040020492049A05941A6B42F004021A6328
:101F70001A6B02F004020592059A06941A6B42F05D
:101F800008021A631B6B03F00803069302250E2652
:101F9000069B0B964FF4806307A9CDE90735CDE981
:101FA000094501F00DFB41F658032C480B9607A993
:101FB000CDE907350927CDE9094501F001FB0323E8
:101FC00027480B9707A9CDE90735CDE9094501F069
:101FD000F7FA4FF4706322480B9607A9CDE907354D
:101FE000CDE9094501F0ECFA4FF40C631D480B965E
:101FF00007A9CDE90735CDE9094501F0E1FAC0238C
:1020000019480B9607A9CDE90735CDE9094501F037
:10201000D7FA082315480B9607A9CDE90735CDE96E
:10202000094501F0CDFA4FF4A0530E480B9707A9CC
:10203000CDE90735CDE9094501F0C2FA582022461D
:10204000052101F073F9582001F0A2F919B0F0BD93
:1020500000680140003802400014024000000240C5
:10206000000402400018024000080240000C024038
:1020700010B5044688B01422002103A81EF04FFDBD
:102080002268144B9A4223D103F568430021019141
:102090005A6C114842F480125A645A6C02F480124D
:1020A0000192019A02911A6B42F020021A631B6B93
:1020B00003F020030293029B4FF46072022303217A
:1020C000CDE903230523CDE9061303A901F078FA2E
:1020D00008B010BD00500140001402402DE9F0414D
:1020E00086B0002303932B4B1C68002C4FD14FF07C
:1020F0000108C3F80080284B00949A6B274842EAF5
:1021000008029A639B6B03EA0803009302270326E5
:102110000C25009B01A94FF63F03CDE90137CDE91E
:10212000046501F04DFA1E48059501A9CDE9018726
:10213000CDE9034601F044FA48F2331319480595F6
:1021400001A9CDE90137CDE9034601F039FA4FF68F
:1021500083731548059501A9CDE90137CDE90346FB
:1021600001F02EFA4CF203731048059501A9CDE950
:102170000137CDE9034601F023FA60230C480595A9
:1021800001A9CDE90137CDE9034601F019FA06B0FE
:10219000BDE8F08118180020003802400014024009
:1021A000000802400018024000100240000C0240EB
:1021B0000004024070B588B000230293204B1A6CD3
:1021C00042F010021A641B6C03F0100302930546E0
:1021D00001A903A8029B02F0C3FB069B4BBB02F0C4
:1021E000AFFB184E184B336040F2E733F360174BE8
:1021F000B0FBF3F3013B7360304600233361B360FF
:10220000B36103F0EBF9044680B9304603F0BCF843
:10221000044658B9362001F0BBF80F2D0DD82246E0
:102220002946362001F082F8094B1D60204608B08F
:1022300070BD02F085FB4000D3E70124F6E700BF44
:10224000003802401C1800200010004040420F00DF
:102250007C0000207047FEE7FEE7FEE7FEE77047E0
:10226000014803F0CFB800BF1C180020014802F05D
:102270000FB800BFD4160020014801F0D3B800BF4A
:10228000D01700200120704708B51EF0EBFC162384
:1022900003604FF0FF3008BD08B51EF0E3FC1623C5
:1022A0000360FEE770B50D4614460E46731B9C4254
:1022B00001DC204670BDAFF3008006F8010BF5E7A6
:1022C00070B50D4614460E46731B9C4201DC204639
:1022D00070BD16F8010BAFF30080F5E74FF0FF304B
:1022E00070474FF400534B60002070470120704747
:1022F000002070470A4A116808B5034609B9094920
:1023000011601068694603448B4206D91EF0AAFC8E
:102310000C2303604FF0FF3008BD1360FCE700BFE3
:1023200064180020C0330120704710B50421044612
:102330001DF06FFA204610BD012908B506D002290C
:1023400008D059B900F030FC006808BD00F02CFC42
:102350004068FAE700F028FC8068F6E70020F4E720
:1023600000487047082502080220704713B5002472
:1023700051B1036801948DF8034001AA9C680DF1E6
:102380000303A04702B010BD0846FBE7C0897047B1
:10239000008A7047C088704780887047807A00F054
:1023A0007F007047807AC0097047002070470000A6
:1023B0009FED010A704700BF0000000070477047A2
:1023C00000F598730868496803C370477047704701
:1023D0004160704770477047064BC0F84C3100238E
:1023E000C0F8503100F5A273C0F84801C0F8403180
:1023F000704700BF9924000801230372704770479B
:1024000010B4C26841685410034601EB6200D20761
:1024100048BF0A599B685DF8044B48BFD35818471A
:102420000346406830B19A681AB9D86800F00100D4
:1024300070470120704710B50C2104461DF0E9F9E2
:10244000204610BD10B5102104461DF0E2F92046CB
:1024500010BD10B54FF4AE7104461DF0DAF92046F8
:1024600010BD10B50AF054FE0368BDE81040DB6BE8
:10247000184710B50446D0F8400158B10368DB682E
:10248000984738B1D4F8400103689B689847002307
:10249000C4F8403110BD00002DE9F14FD0E9556A74
:1024A0000746B06803681B6A9847B0F5967F05D267
:1024B000444B454AA32145481EF02AF97068036839
:1024C0001B6A98470F2803D8414B3F4AA421F2E7E3
:1024D000F06803681B6A98470B2803D83D4B3A4ABB
:1024E000A521E8E70AF014FEDFF8F09004300AF0C6
:1024F00034FED9F8000010B10368DB689847D9F8BA
:10250000000010B103681B689847DFF8D480D8F842
:10251000000010B103685B699847D7F83C0110B11F
:1025200003685B689847D8F8000010B103681B681F
:102530009847D7F83C0110B103689B689847F0684A
:10254000036800215B6A98474FF0000B224BC0F8EC
:1025500004B0044680F808B00360B06803685946C8
:102560005B6A9847054600F08BFB70680368594624
:102570005B6A98472946064600F060FB331DC7F8A2
:102580003C61C9F80040C8F80050CAF800302B6818
:10259000C6F808A02846DB68EE63984733683046E3
:1025A0001B689847214628460CF084FF2368204684
:1025B0001B69984723685B69204601B0BDE8F04F6E
:1025C000184700BF761C0208041D0208D61D020829
:1025D0001D1E0208C01E0208A4250208C8260120EC
:1025E000C4260120044B1B6893F858200AB1D86C0C
:1025F00000B99868704700BF8026012070B5044676
:102600000D4616460AF046FE104A1460104A226033
:10261000104A0023C4E95123C4E95333C4E94F33BA
:102620000D4B1868036801219B68C4E955659847FC
:10263000FFF7D8FF15F009F8FFF7D4FF15F080F881
:10264000FFF7D0FF15F088F8204670BDD426012092
:10265000502502083825020880260120064BC0F8C4
:102660004C310023C0F8503100F5A273C0F8480186
:10267000C0F84031704700BF99240008406A704795
:10268000806A704770478A880B8810B5D20A4C88D8
:10269000C1699BB251F8220043EA0443184410BDBB
:1026A00010B50446BAB1107B68B1537BD27A1B02D5
:1026B00003F4E0631A43236A03EB82031A888A4215
:1026C00002D193F9020010BD05D8013880B204335D
:1026D0000028F3D1F7E70020F5E710B52C210446D8
:1026E0001DF097F8204610BD30B58BB00446BDF8FC
:1026F00060500895BDF85C5007959DF850500695C0
:102700009DF84C5005959DF8485004959DF844500F
:1027100003959DF8405002959DF83C500195BDF8F9
:10272000385000950CF0FEFA064B2360159BE361D0
:10273000169B2362199B63621A9BA36220460BB00F
:1027400030BD00BFC825020870477047704770470A
:1027500070477047704710B54FF4947104461DF0F0
:1027600058F8204610BD70B5036804461B6B15462B
:1027700098472368294620465B6BBDE870401847A0
:102780002DE9F74304460CF0E9FC544B2360544B0D
:102790000025C4E910354FF4807304F16C074FF63F
:1027A000FF78FF22A4F86430A4F890304D4BE36624
:1027B00004F1980684F86620A4F8928084F8948046
:1027C00001A93846C4E91255C4E91455C4E916559F
:1027D000C4E91C55C4E91E55C4E92055C4E9225575
:1027E000E5632566A566ADF8048008F024FDADF824
:1027F000048001A904F14008304608F043F82A4655
:1028000029464046FFF7AFFF4046F021FEF792FD14
:1028100040464FF4A071FEF78FFD04F104094FF01C
:102820007F43A3664146484605F0CAF82822294658
:102830003846FFF798FF01A93846ADF8045008F074
:10284000FAFC3946484605F0BBF8282229463046AE
:10285000FFF789FF01A901233046ADF8043008F0E5
:10286000B3F94FF0F013C4F8A0301F4BC4F8C430D4
:102870001E4BC4F8C830304608F050F8DFF87880B6
:102880001B4FB7EE000A304608F0AFF93046C4F8E7
:10289000F08008F043F83046C4F8DC70C4F8E0700B
:1028A000C4F8E48008F03AF83046C4F8E870C4F898
:1028B000EC7008F033F89FED0F1A3046F0EE410A45
:1028C000B0EE410A08F089F9484684F8C150314613
:1028D00005F076F8204603B0BDE8F0833026020804
:1028E0006C2A0208D42A02080000DC4200000642DA
:1028F0000000F0420000000000007A447047000031
:1029000030B5164D2C6814F001048FB0BFF35B8F07
:1029100020D128461CF07FFFE0B13F230993104BE4
:102920000893104B104911480A940122CDE906433F
:102930000423CDE903320A230093CDE90B44CDE90A
:1029400001440594FFF7D0FE09481DF0FFFE28461C
:102950001CF06DFF05480FB030BD00BF68180020A7
:102960004435020850350208143502086C1800205E
:10297000FD2800087047000030B5164D2C6814F093
:1029800001048FB0BFF35B8F20D128461CF043FFBA
:10299000E0B13F230993104B0893104B10491148A5
:1029A0000A940122CDE906430423CDE9033214231E
:1029B0000093CDE90B44CDE901440594FFF794FE63
:1029C00009481DF0C3FE28461CF031FF05480FB032
:1029D00030BD00BF98180020483502085435020861
:1029E000243502089C180020752900087047000053
:1029F00030B5164D2C6814F001048FB0BFF35B8F17
:102A000020D128461CF007FFE0B13F230993104B6B
:102A10000893104B104911480A940122CDE906434E
:102A20000423CDE9033228230093CDE90B44CDE9FB
:102A300001440594FFF758FE09481DF087FE28461B
:102A40001CF0F5FE05480FB030BD00BFC8180020CF
:102A50004C3502085835020834350208CC180020DD
:102A6000ED29000800207047002070470EB403B520
:102A700003AB002153F8042B01930BF0D1FB02B000
:102A80005DF804EB03B070470CB407B504AB53F822
:102A9000042B01930BF0C4FB03B05DF804EB02B010
:102AA00070470000436C10B5044673B3038F2BB915
:102AB000184B194AC52119481DF02AFEC38E00EB98
:102AC00043035B8C0BB30DF0E8F9238F012B03D884
:102AD000134B144ACB21EEE7E28E531C9BB2092B19
:102AE000194688BFA3F10A0104EB410140F63F10EB
:102AF000498C814209D10A2B04EB420228BF0023F2
:102B000004EB4303508C588451842046BDE81040A8
:102B10000DF0C6B8631F02086C1F020817200208D8
:102B2000612002086F2002080DF081B838B518BB8B
:102B3000124B13481C681349B4B122682244026046
:102B4000626822440A60A26814440F4B00221A8073
:102B500000F02AF8054600F025F80C4B1C600C4BE1
:102B60001D600C4B188007E00B4B03600B4B0B6098
:102B70000B4B1C68002CE8D138BD00BF04190020A5
:102B8000FC180020F818002000190020D826012089
:102B9000E0260120DC260120603502085C350208B1
:102BA000643502080020704700487047081900206B
:102BB00010B5FFF7E1FE044C2060FFF719FF6060DD
:102BC000FFF79EFEA06010BD0819002010B500247C
:102BD00004600C6014601C6010BD704710B54FF4A9
:102BE000AE7104461CF015FE204610BD10B504461B
:102BF000D0F8580100F013F82046BDE810400AF064
:102C000009BB000010B50446FFF7F8FC014B236038
:102C1000204610BD642602080022026070477047FB
:102C2000704704387047704710B5102104461CF0F7
:102C3000F0FD204610BDA0F10400F5E700228260FF
:102C4000024A026018324260C1607047B82602082A
:102C50007047000010B5034B03600446FFF779FD91
:102C6000204610BDE026020810B50446FFF7F2FF2B
:102C700020464FF496711CF0CCFD204610BD00009C
:102C800010B50446FFF77CFD014B2360204610BDC4
:102C9000E0260208FFF75EBD73B5D0F828311F4D5E
:102CA00001330446C0F82831002628688DF80760F3
:102CB00002F028FF60B34FF0FF33286832460DF171
:102CC000070102F0EFFE9DF80730502B1ED1144A89
:102CD000D4F8283112689FED137A9FED131AD4EDC2
:102CE000340A94ED330A9B1A4FF4B472B3FBF2F139
:102CF00002FB113307EE903AF8EEE77A04F1980000
:102D000067EE877A87EE811A07F076FD02B070BD14
:102D1000034BD4F828211A60F8E700BF38160020CA
:102D200014190020C3F5484000003443F0207047D8
:102D30004FF4A07070472920FEF7ACBF2820FEF7A3
:102D4000A9BF08B5FEF77AFFCA20FEF7A3FFC3208C
:102D5000FEF784FF0820FEF781FF5020FEF77EFF7C
:102D6000CF20FEF797FF0020FEF778FFC120FEF787
:102D700075FF3020FEF772FFED20FEF78BFF642019
:102D8000FEF76CFF0320FEF769FF1220FEF766FFD7
:102D90008120FEF763FFE820FEF77CFF8520FEF729
:102DA0005DFF0020FEF75AFF7820FEF757FFCB208B
:102DB000FEF770FF3920FEF751FF2C20FEF74EFF83
:102DC0000020FEF74BFF3420FEF748FF0220FEF7FD
:102DD00045FFF720FEF75EFF2020FEF73FFFEA20C9
:102DE000FEF758FF0020FEF739FF0020FEF736FF00
:102DF000B120FEF74FFF0020FEF730FF1B20FEF74B
:102E00002DFFB620FEF746FF0A20FEF727FFA2207F
:102E1000FEF724FFC020FEF73DFF1020FEF71EFF47
:102E2000C120FEF737FF1020FEF718FFC520FEF780
:102E300031FF4520FEF712FF1520FEF70FFFC720D8
:102E4000FEF728FF9020FEF709FF3620FEF722FF4D
:102E5000C820FEF703FFF220FEF71CFF0020FEF75C
:102E6000FDFEB020FEF716FFC220FEF7F7FEB620EB
:102E7000FEF710FF0A20FEF7F1FEA720FEF7EEFE98
:102E80002720FEF7EBFE0420FEF7E8FE2A20FEF7DF
:102E900001FF0020FEF7E2FE0020FEF7DFFE00202B
:102EA000FEF7DCFEEF20FEF7D9FE2B20FEF7F2FE48
:102EB0000020FEF7D3FE0020FEF7D0FE0120FEF733
:102EC000CDFE3F20FEF7CAFEF620FEF7E3FE01200E
:102ED000FEF7C4FE0020FEF7C1FE0620FEF7BEFE90
:102EE0002C20FEF7D7FEC820FEF722FF2620FEF793
:102EF000D1FE0120FEF7B2FEE020FEF7CBFE0F2050
:102F0000FEF7ACFE2920FEF7A9FE2420FEF7A6FE60
:102F10000C20FEF7A3FE0E20FEF7A0FE0920FEF710
:102F20009DFE4E20FEF79AFE7820FEF797FE3C208D
:102F3000FEF794FE0920FEF791FE1320FEF78EFEA9
:102F40000520FEF78BFE1720FEF788FE1120FEF706
:102F500085FE0020FEF782FEE120FEF79BFE0020AA
:102F6000FEF77CFE1620FEF779FE1B20FEF776FEAC
:102F70000420FEF773FE1120FEF770FE0720FEF717
:102F80006DFE3120FEF76AFE3320FEF767FE422019
:102F9000FEF764FE0520FEF761FE0C20FEF75EFEE4
:102FA0000A20FEF75BFE2820FEF758FE2F20FEF7D2
:102FB00055FE0F20FEF752FE1120FEF76BFEC820D3
:102FC000FEF7B6FE2920FEF765FEBDE808402C207E
:102FD000FEF760BE08B5FEF731FE0321D320FEF7F1
:102FE00075FE80B208BD10B5C4B20222032120468E
:102FF000FEF7DAFD0A20FEF71FFE2046002203211D
:10300000FEF7D2FDBDE810400220FEF715BE38B530
:103010000446E4B2FEF7C6FD00212046FEF7DCFDC3
:10302000012105462046FEF7D7FD40EA052080B283
:1030300038BD10B5C4B240212046FEF7CDFD0306D1
:1030400007D54C212046FEF7C7FD003818BF0120E8
:1030500010BD01224B212046FEF7A6FD204600228E
:103060004B21FEF7A1FD0020F2E773B50423C4B2A3
:103070000E461546D7210DEB03022046FEF7C6FD8E
:10308000019B1BBA1A0DC3F30B23328020462B8001
:1030900001224B21FEF788FD00224B212046FEF73E
:1030A00083FD02B070BD000010B50A4A1378984243
:1030B00004460DD0517888420AD00BB141B90123A2
:1030C000D454FEF76FFD2046BDE81040FFF78BBFDC
:1030D00010BD00BF1819002010B5C4B20921204648
:1030E000FEF77AFD40F00102D2B220460921BDE888
:1030F0001040FEF759BD10B5C4B209212046FEF7B5
:103100006BFD092100F0FE022046BDE81040FEF7ED
:103110004BBD38B5C4B20D4620460A21FEF75CFD12
:1031200040EA0502D2B220460A21BDE83840FEF747
:103130003BBD10B50446FEF736FD20461F21FFF7C4
:10314000E8FF2046BDE81040FFF7C6BF38B5C4B25F
:103150000D4620460A21FEF73FFD20EA0502D2B2C5
:1031600020460A21BDE83840FEF71EBD10B50446D2
:10317000FFF7C1FF20461F21BDE81040FFF7E6BF63
:1031800010B5C0B20C460B21FEF726FD204010BD45
:103190001F21FFF7F5BF0A46C0B20B21FEF704BDA1
:1031A0001F21FFF7F8BF38B5C4B20D4620461721DE
:1031B000FEF712FD20EA0502D2B220461721BDE833
:1031C0003840FEF7F1BC70B5C4B206460421204673
:1031D000FEF702FD042100F0FB0205462046FEF743
:1031E000E3FC3046F021FFF7DEFF05F0F802204651
:1031F0000421FEF7D9FC492220212046FEF7D4FC09
:103200000220FEF719FD204601222121FEF7CCFC09
:1032100020469A224121FEF7C7FC204601224A217E
:10322000FEF7C2FC204601224B21FEF7BDFC2046E2
:1032300000224B21FEF7B8FC204601225621FEF762
:10324000B3FC204601225821FEF7AEFC20460122A5
:103250004021FEF7A9FC2046FF220B21FEF7A4FC2B
:10326000BDE870400220FEF7E7BC0000054BD3F834
:10327000882042F47002C3F888204FF000629A6000
:10328000704700BF00ED00E008B50B4B1A6842F430
:1032900000721A601A6842F480621A601A6842F476
:1032A00080721A60032000F02FF80020FEF782FFE2
:1032B000FEF74CFD002008BD003C0240034A044BD1
:1032C00011681B780B441360704700BF1C19002065
:1032D00078000020014B1868704700BF1C190020BF
:1032E00038B50446FFF7F6FF631C1CBF054B1B787F
:1032F000054618BFE418FFF7EDFF431BA342FAD3BE
:1033000038BD00BF780000200749CA6822F4E06297
:103310000302120403F4E063120C134343F0BF638F
:1033200043F40033CB60704700ED00E0164B30B53E
:10333000DC68C4F30224C4F10703251D042B28BF55
:103340000423062D4FF0FF358CBF033C002405FA03
:1033500003F321EA0303A54022EA0502A340002863
:1033600043EA0203ACBF00F16040084A4FEA03138E
:10337000B8BF00F00F00DBB2AABF00F561401354E4
:1033800080F8003330BD00BF00ED00E014ED00E038
:10339000002807DB044A4109012300F01F00834095
:1033A00042F82130704700BF00E100E010B504464C
:1033B00050B1437903F0FF0213B90271FEF7E6FC46
:1033C00001236371002010BD0120FCE710B5044605
:1033D00020B390F8393003F0FF021BB980F8382091
:1033E000FEF7ECFC022384F83930236861681A6820
:1033F00022F440320A431A605A6BA16822F0070295
:103400000A435A631A6CE1686FF30D020A431A64A7
:1034100000200123E06384F8393010BD0120FCE76F
:1034200070477047036870B55E681D68F207044610
:1034300014D5E90512D51A6822F480721A60C26B9D
:1034400042F00102C26301229A60042380F83930FD
:10345000002380F83830436903B19847B20616D587
:10346000AB0414D523681A6822F400521A60202293
:103470009A60E36B43F00203E363042384F839307A
:10348000002384F8383063690BB120469847300731
:1034900016D5290514D523681A6822F400621A602B
:1034A00008229A60E36B43F00403E363042384F887
:1034B0003930002384F8383063690BB120469847CF
:1034C00072070BD56B0509D523681A6822F4806250
:1034D0001A6004229A602046FFF7A2FFB00714D5B5
:1034E000A90512D523681A6822F400721A60022214
:1034F0009A60E36BE363012384F83930002384F896
:10350000383023690BB120469847F20613D5EB04F7
:1035100011D523681A6822F480521A6010229A602A
:10352000E36BE363012384F83930002384F83830F7
:103530002046FFF776FF70BDF0B590F83820012ADD
:1035400003464FF002002BD0012283F8382083F885
:10355000390003EB0112D2E90740556A174F44EADC
:103560000040093C012C9CBF05F07F4210434FEA0C
:1035700001161A6888BF40EA056091B9516A39405E
:1035800001435162012C9969916103D8596A21F074
:103590007F4191620122002083F8392083F83800AE
:1035A000F0BDD16939400143D1619919012C896974
:1035B00011619CBF25F07F451562EBE7F0FFFC0031
:1035C0002DE9F74FDFF8BC916C4A00230D68012408
:1035D0009C4004EA0506AC4340F0B7804D680327E1
:1035E00005F003044FEA430807FA08FC671E012FA1
:1035F0006FEA0C0C34D8876807EA0C0ECF6807FA1C
:1036000008F747EA0E078760476827EA060EC5F302
:1036100000179F4047EA0E074760C76807EA0C0E8D
:103620008F6807FA08F747EA0E07022CC76019D11E
:103630004FEAD30A00EB8A0A03F0070BDAF820708E
:103640004FEA8B0B4FF00F0E0EFA0BFE27EA0E0E11
:103650000F6907FA0BF747EA0E07CAF8207001E076
:10366000032CDAD1076804FA08F407EA0C073C4394
:1036700015F4403F046068D000240194D9F8444018
:1036800044F48044C9F84440D9F8444023F0030787
:1036900007F1804704F4804407F59C37019403F058
:1036A000030C019CD7F808E04FEA8C0C0F2404FAB5
:1036B0000CF42EEA040E324CA0424DD004F5806486
:1036C000A0424BD004F58064A04249D004F5806448
:1036D000A04247D004F58064A04245D004F5806440
:1036E000A04243D004F58064A04241D004F5806438
:1036F000A0423FD004F58064A0423DD004F5806430
:10370000A04214BF0A24092404FA0CF444EA0E046B
:10371000BC609468F74315F4801F0CBF3C403443F1
:103720009460D46815F4001F0CBF3C403443D4604F
:10373000546815F4003F0CBF3C4034435460146897
:10374000ED0354BF3C40344314600133102B7FF42D
:103750003DAF03B0BDE8F08F0024D5E70124D3E7E7
:103760000224D1E70324CFE70424CDE70524CBE7E7
:103770000624C9E70724C7E70824C5E7003C014041
:1037800000000240003802400369194214BF0120C2
:10379000002070470AB1816170470904FBE7436963
:1037A00001EA030221EA030141EA02418161704713
:1037B00001684B6913F480634FF0000210D06FF47E
:1037C00080634B612023026380F83D3080F83E2007
:1037D000036C80F83C2043F004030364012070472D
:1037E000184670472DE9F84606460F4691461D4695
:1037F0004FEA114A3368BAF1010F0CBF5C699C694A
:1038000027EA0404A4B2B4FA84F46409A14501D0FF
:10381000002025E06A1CEED0FFF75CFD089BC01A73
:10382000A84201D8002DE5D13368BAF1010F0CBFD1
:103830005B699B6927EA03039BB2B3FA83F35B09D5
:103840009945D7D100232022336386F83D2086F89E
:103850003E30326C86F83C3042F020023264012067
:10386000BDE8F8862DE9F04104460F461646984615
:103870002568686927EA000080B2C0B16B695A0503
:1038800017D52B6843F400732B606FF480636B6172
:1038900020220023236384F83D2084F83E30236CEB
:1038A00043F004032364002384F83C300120BDE886
:1038B000F081731CDDD0FFF70DFDA0EB0800B042D6
:1038C00001D8002ED4D123685A6927EA020292B2A5
:1038D000002ACDD000232022236384F83D2084F8E1
:1038E0003E30236C1343DDE770B504460D461646A3
:1038F00023685B691B0601D500201EE02046FFF708
:1039000057FFC8B96A1CF3D0FFF7E4FC801BA8423C
:1039100001D8002DECD123685B6913F08003E7D157
:103920002022236384F83D2084F83E30226C84F802
:103930003C3042F020022264012070BD2DE9F043AA
:103940001546026885B0DDE90C789946136843F4A2
:10395000807313600E463B46CDF8008000224FF086
:1039600001110446FFF73EFF236838B11B68DB05F1
:1039700002D54FF400732364032620E006F0FE0610
:103980001E611A4943463A462046FFF76BFFA8B925
:10399000236803905A6903929B6903934246394610
:1039A0002046039BFFF7A0FF064660B1236C042B63
:1039B00001BF2268136843F4007313600126304688
:1039C00005B0BDE8F083B9F1010F236802D1EDB273
:1039D0001D61F4E72A0A1A61394642462046FFF77C
:1039E00083FF0028E2D12368F1E700BF0200010055
:1039F0002DE9FF479A46036815461A6842F480622B
:103A00001A601A68DDE90C7842F480721A600E467A
:103A10003B46CDF8008000224FF001110446FFF72D
:103A2000E1FE236838B11B68DB0544BF4FF4007327
:103A30002364032021E05FFA86F906F0FE061E618A
:103A40002B4943463A462046FFF70CFFA0B92368AE
:103A500003905A6903929B69039342463946204674
:103A6000039BFFF741FF58B1236C042B01BF226871
:103A7000136843F400731360012004B0BDE8F087BD
:103A8000BAF1010F23681AD1EDB242461D613946E1
:103A90002046FFF729FF02460028E5D121680B6880
:103AA00043F480730B602046CDF800803B464FF016
:103AB0000111FFF797FE226860B11368B4E72A0A84
:103AC0001A61394642462046FFF70EFF0028CBD147
:103AD0002368D9E749F001031361054943463A4693
:103AE0002046FFF7BFFE003818BF0120C5E700BF22
:103AF0000200010070B504460D46164623685B6956
:103B00005B0701D500201EE02046FFF751FEC8B933
:103B10006A1CF3D0FFF7DEFB801BA84201D8002D02
:103B2000ECD123685B6913F00403E7D120222363FF
:103B300084F83D2084F83E30226C84F83C3042F01A
:103B400020022264012070BD70B504460D46164661
:103B500021684B6913F0400301D0002011E04A694D
:103B6000D2060FD56FF010024A612022236384F839
:103B70003D2084F83E30236C2364002384F83C30DD
:103B8000012070BDFFF7A6FB801BA84201D8002DC5
:103B9000DED123685B6913F04003D9D1202223636F
:103BA00084F83D2084F83E30236C1343E4E70000A2
:103BB00070B5044608B9012070BD90F83D3003F09F
:103BC000FF021BB980F83C20FEF71AF9242384F881
:103BD0003D3023681A6822F001021A601A6842F424
:103BE00000421A601A6822F400421A6000F0A8FE2F
:103BF0003F4B65689D4294BF3E4B3F4B98428CBF04
:103C000000230123002BD6D12268394E51683B4B4B
:103C1000B0FBF3F321F03F011943B542516088BF77
:103C20004FF49676116A88BF734321F03F0184BF39
:103C30004FF47A76B3FBF6F301330B431362D16989
:103C4000431E2B4821F44F41854221F0FF0132D819
:103C50006D0040F6FC70B3FBF5F30133034242D034
:103C6000C3F30B031943D161D4E90730116803434F
:103C700021F0C0010B4313609168D4E9030321F4E0
:103C80000341034321F0FF010B439360D4E9053066
:103C9000D168034321F0FF010B43D360136843F065
:103CA0000103136000202023206484F83D3020634A
:103CB00084F83E0080E7A06850B905EB4505B3FBEA
:103CC000F5F30133C3F30B037BB143F40043C9E7BE
:103CD00019206843B3FBF0F30133C3F30B0323B1A3
:103CE00043F44043BEE70423BCE70123BAE700BF27
:103CF000A08601007F841E00FF083D0040420F00A7
:103D00002DE9F743044699460C9E0F469046FFF76F
:103D1000E1FA94F83D30202B054603D0022003B091
:103D2000BDE8F08300903C49192301222046FFF7AB
:103D300059FD0028F2D194F83C30012BEED02068D8
:103D4000012384F83C300368D9075EBF036843F061
:103D500001030360036823F400630360212384F8F4
:103D60003D30402384F83E30002323640A9B636285
:103D7000BDF82C306385638D2385284BE362424672
:103D8000CDE900654B4639462046FFF7D7FD0028B0
:103D90002AD00120C3E7FFF7A7FD40B1236C042B15
:103DA00001BF2268136843F400731360F1E7636A8C
:103DB00027681A4612F8011B39616262628D218DF3
:103DC000013A92B262857A69481E80B25207208514
:103DD0000AD548B15A783A6102336362638D013B78
:103DE00002399BB221856385238D2A4631462046C0
:103DF000002BD0D1FFF77EFE0028CFD122681368B8
:103E000043F400731360202384F83D3084F83C00B1
:103E100084F83E0083E700BF020010000000FFFFAF
:103E20002DE9F043044687B09946109F0D46904611
:103E3000FFF750FA94F83D30202B064604D00225B7
:103E4000284607B0BDE8F08300907A491923012283
:103E50002046FFF7C7FC0028F1D194F83C30012B35
:103E6000EDD02068012384F83C300368DB075EBF97
:103E7000036843F001030360036823F400630360F5
:103E8000222384F83D30402384F83E30002323640D
:103E90000E9B6362BDF83C306385638D2385664B62
:103EA000E3622946CDE900764B4642462046FFF7BD
:103EB0009FFD054608B10125C2E7228D2368B2B9EE
:103EC00002905A6902929A690292029A1A6842F41E
:103ED00000721A60DFF86481238D002B2CD1202220
:103EE00084F83D2084F83C3084F83E30A8E7012A6D
:103EF0000AD11A6822F480621A6003905A69039208
:103F00009A690392039AE1E7022A0ED11A6822F411
:103F100080621A601A6842F400621A6004905A695A
:103F200004929B690493049BD4E705905A69059217
:103F30009B690593059BCDE7032B56D8012B15D123
:103F4000324639462046FFF7FFFD0028B3D12368EB
:103F50001A69636A1A70636A01336362238D013BD5
:103F60002385638D013B9BB26385B5E7022B0096E9
:103F70003B464FF000024146204619D1FFF732FC84
:103F8000002898D123681A6842F400721A601A69EE
:103F9000636A1A70626A531C6362238D013B238536
:103FA000638D013B9BB2638523681B695370D2E725
:103FB000FFF718FC024600287FF47DAF23681968DC
:103FC00021F4806119601969636A1970636A0133A9
:103FD0006362238D013B2385638D013B9BB2638527
:103FE000414600963B462046C8E7324639462046C1
:103FF000FFF7AAFD00287FF45EAF23681A69636AA1
:104000001A70628D616A013A92B24B1C6285226815
:104010006362238D5069013B9BB2400723857FF586
:104020005BAF032B02BF136823F480631360136933
:104030004B7090E7020010000000FFFF0400010039
:1040400010B590F83D30202BDCB216D1242380F837
:104050003D3003681A6822F001021A605A6A22F0A1
:1040600010025A625A6A114359621A6842F00102F8
:104070001A6080F83D40002010BD0220FCE730B5FA
:1040800090F83D30202BDCB216D10268242380F852
:104090003D30136823F001031360556A4FF6F07347
:1040A0002B400B439BB25362136843F00103136030
:1040B00080F83D40002030BD0220FCE70068D1F8C8
:1040C00000C0D201843283182DE9F043C6685D68D0
:1040D0004C68D1F8189005F470455D60C5680CF126
:1040E0000107C5F30B45C6F30B4626443D4445EA9C
:1040F00006455D60C668CD68C6F30A062E449D6815
:1041000005F470459D60C7688D68C7F30A070135DF
:104110003D4445EA06459D601D690E6925F0070589
:104120001D614FF0000E1E6191F832709D6991F88B
:104130003180C3F818E091F8305045EA096545EA46
:10414000082545EA07459D615D6925F0FF055D612C
:104150004D695D61DD6925F4E06525F00705DD61E8
:10416000D1E907573D43DD619D6A4D6AC3F828E0F8
:10417000072E9D629CBF0E4DAE5DDD6A05F0E02509
:10418000DD6288BF01268D6AC96AA4EB0C04744302
:104190007543033444EA0544DC621C6B6FF30A0484
:1041A0001C631963835843F001038350BDE8F08317
:1041B0002427020838B50446002863D090F8A130BF
:1041C00003F0FF021BB980F8A020FDF775FE022363
:1041D00084F8A13023689A6922F070429A61D4E988
:1041E00001200243E06899690243206902430A43BF
:1041F0009A619A68244960690A409A609A6842EA1A
:104200000042A06902439A60DA68E0690A40DA6015
:10421000DA6842EA0042206A0243DA601A69606A98
:104220000A401A611A6942EA0042A06A02431A610E
:104230005A690A405A615A69E16A42EA0142216BAD
:104240000A435A61DA6A94F8350094F8361002F09D
:104250007F42DA62DD6A94F834202A4342EA00227F
:1042600042EA0142DA625A6B42F006025A639A69E4
:1042700042F001029A6100200123C4F8A40084F8EE
:10428000A13038BD0120FCE700F800F0704770470E
:10429000036870B59E6B5D6B7207044614D56907A1
:1042A00012D55A6B22F004025A630422DA63D0F862
:1042B000A43043F00103C0F8A430002380F8A1200B
:1042C00080F8A030FFF7E2FFB20716D5AB0714D590
:1042D00023685A6B22F002025A630222DA63D4F88E
:1042E000A4301343C4F8A430042384F8A13000237D
:1042F00084F8A0302046FFF7C9FFF00710D5E90782
:104300000ED523685A6B22F001025A630122DA6348
:10431000002384F8A12084F8A0302046FDF77CF922
:10432000320711D52B070FD523685A6B22F00802EC
:104330005A630822DA63012384F8A130002384F849
:10434000A0302046FFF7A3FF70BD2DE9F04190F8A3
:10435000A030012B06460F4694464FF002001FD0B6
:104360004FF0010886F8A08086F8A10034240D469D
:1043700004FB02640FCD38340FC40FCD0FC40FCD32
:104380000FC42B682360304662463946FFF796FE1D
:1043900033680020C3F8248086F8A18086F8A00046
:1043A000BDE8F08190F8A020012A03464FF00200FA
:1043B00012D01A6883F8A100506B20F001005063FE
:1043C00006480164516B41F0010151630020012254
:1043D00083F8A12083F8A000704700BF0068014067
:1043E00037B500230193184B184D1A6C42F08052D8
:1043F0001A641B6C03F080530193019B144B012240
:104400001A64FEF767FF04466B68DA030BD5104B9E
:104410000E4D01225A64FEF75DFF04466B689B0354
:104420000AD5002006E0FEF755FF001BB0F57A7FA5
:10443000EAD9032003B030BDFEF74CFF001BB0F5F6
:104440007A7FEBD9F5E700BF0038024000700040EA
:1044500000000E422DE9F341044640B30368DE0735
:1044600010D423689D075BD42368190700F19D8051
:1044700023685A0700F1BD80A369002B40F0248116
:1044800000202CE08D4B9A6802F00C02042A07D021
:104490009A6802F00C02082A0BD15B68590208D511
:1044A000864B1B689A03DCD56368002BD9D10120A9
:1044B00015E06368814DB3F5803F13D12B6843F459
:1044C00080332B60FEF706FF7C4E054633689B0366
:1044D000C7D4FEF7FFFE401B6428F7D9032002B0C3
:1044E000BDE8F081B3F5A02F04D12B6843F48023FD
:1044F0002B60E3E72A6822F480322A602A6822F4DB
:1045000080222A60002BDDD1FEF7E4FE06462B68F0
:104510009F03A6D5FEF7DEFE801B6428F7D9DDE7F2
:10452000664B9A6812F00C0F07D09A6802F00C02E2
:10453000082A11D15B685D020ED4604A136899079E
:1045400002D5E368012BB2D11368216923F0F80387
:1045500043EAC103136087E7E268594BB2B1012215
:104560001A60FEF7B7FE554D06462B689B0707D528
:104570002B68226923F0F80343EAC2032B6073E738
:10458000FEF7A8FE801B0228EFD9A7E71A60FEF706
:10459000A1FE4A4E054633689F077FF565AFFEF7DB
:1045A00099FE401B0228F6D998E76269444B82B114
:1045B0000122C3F8802EFEF78DFE404E0546736F34
:1045C0009B073FF555AFFEF785FE401B0228F6D945
:1045D00084E7C3F8802EFEF77DFE384E0546736FE4
:1045E0009F077FF545AFFEF775FE401B0228F6D901
:1045F00074E7324B1A6C12F0805228D101921A6C77
:1046000042F080521A641B6C03F080530193019BAB
:1046100001272C4D2B68D8051BD5A368274D012BEE
:1046200027D12B6F43F001032B67FEF753FE234E78
:10463000054641F28838336F9A0739D5002F3FF489
:104640001BAF1E4A136C23F08053136414E700273A
:10465000DFE72B6843F480732B60FEF73BFE0646D2
:104660002B68D905D9D4FEF735FE801B0228F7D96F
:1046700034E7052B04D12B6F43F004032B67D0E7FD
:104680002A6F22F001022A672A6F22F004022A67A9
:10469000002BCAD1FEF71EFE41F2883806462B6F6A
:1046A0009B07CBD5FEF716FE801B4045F7D915E7D3
:1046B000FEF710FE401B4045BDD90FE70038024011
:1046C0000000474200700040374DAA6802F00C021B
:1046D000082A3ED0022B354B4FF000021A662BD130
:1046E000FEF7F8FD06462B6899011FD4D4E907327E
:1046F0001343626A43EA8213E26A43EA0263A26AEC
:104700005208013A43EA02436B60284B264D0122CE
:104710001A66FEF7DFFD04462B689A013FF5B0AE3E
:10472000FEF7D8FD001B0228F6D9D7E6FEF7D2FD2A
:10473000801B0228D7D9D1E6FEF7CCFD04462B68B2
:104740009B017FF59DAEFEF7C5FD001B0228F6D943
:10475000C4E6012B3FF4ABAE6B68E26903F4800161
:1047600091427FF4A4AE216A03F03F028A427FF4B3
:104770009EAE616A47F6C0721A40B2EB811F7FF4A9
:1047800096AEA26A520803F44031013AB1EB024FEF
:104790007FF48DAEE26A03F07063B3EB026F14BF77
:1047A000012000209BE600BF003802400000474285
:1047B000134908B58B6803F00C03042B1CD0082B9D
:1047C0001CD14A684B68496813F4800314BF0D4834
:1047D0000D48C1F3881118BF002302F03F02A1FB6E
:1047E0000001FBF7A5FD064B5B68C3F301430133F2
:1047F0005B00B0FBF3F008BD0248FCE70248FAE7B3
:104800000038024000127A000024F4002DE9F04143
:104810000D46044610B90120BDE8F081434B1A68EB
:1048200002F00F028A4228D321688F072DD4C807CF
:1048300040D43E4B1A6802F00F02AA4265D82268A3
:1048400051076BD4130707D5394A2169936823F4BC
:10485000604343EAC1039360FFF7AAFF344B354A34
:104860009B68C3F30313D35CD840334B1860334BBE
:104870001868FDF79FFC0020CEE7CAB21A701B68CB
:1048800003F00F038B42C6D1CEE7294B11F0040F82
:104890001EBF9A6842F4E0529A600E0742BF9A68BF
:1048A00042F460429A609A68A06822F0F0020243E3
:1048B0009A60BCE762681E4B012A1CD11B6813F486
:1048C000003FA8D01A4EB36823F003031343B3602C
:1048D000FEF700FD41F288380746B368626803F0CE
:1048E0000C03B3EB820FA4D0FEF7F4FCC01B4045D1
:1048F000F3D9032090E7911E01291B6802D813F019
:10490000007FDEE713F0020FDBE7EAB21A701B68E4
:1049100003F00F03AB427FF47EAF90E70449E068F9
:104920008B6823F4E05303438B608BE7003C024029
:104930000038024014270208740000207C00002088
:10494000044B054A9B68C3F38223D35C034A106877
:10495000D8407047003802400C270208740000203D
:104960000F2303600B4B9A6802F0030242609A68BF
:1049700002F0F00282609A6802F4E052C2609B6822
:10498000DB0803F4E0530361034B1B6803F00F03E0
:104990000B60704700380240003C0240036813F08F
:1049A000430FF7B5044640F08880236813F00C0FDE
:1049B00045D08C4B8C4D00221A67FEF78BFC0646C7
:1049C0002B68990000F1CB8021684A0715D5D4E9FE
:1049D0000403D5F888201B0602F0E04243EA801366
:1049E0001343C5F88830D5F88C30226A23F4F85385
:1049F000013A43EA0223C5F88C300B0714D57A4AF2
:104A0000A369D2F8881020691B0701F0706143EA9E
:104A100080130B43C2F88830D2F88C30616A23F4DB
:104A200040330B43C2F88C306E4B6F4E01221A6735
:104A3000FEF750FC054633689F0040F197802368DD
:104A4000980634D500230193674B684D1A6C42F0E9
:104A500080521A641B6C03F080530193019B2B68F6
:104A600043F480732B60FEF735FC06462B68D805AF
:104A700040F183805C4DA26A2B6F13F4407340F0C9
:104A80008380A36A03F44072B2F5407F564A40F037
:104A90009E80916823F0704021F4F81120F440705A
:104AA00001439160116FC3F30B030B43136723683A
:104AB000DB0600F1908000204FE04A4B4A4E002276
:104AC0009A66FEF707FC054633681F013FD421684C
:104AD000C80741BFD4E901231B0743EA8213C6F884
:104AE00084308A0715D5404AE368D2F884006568A7
:104AF0001B0600F0E04043EA85130343C2F884300C
:104B0000D2F88C00E36920F01F00013B0343C2F898
:104B10008C304B060AD5E36862681B0643EA8213B1
:104B2000A26843EA0273304AC2F884302D4B2E4EFD
:104B300001229A66FEF7CEFB054633681F013FF55A
:104B400034AFFEF7C7FB401B0228F6D904E0FEF79E
:104B5000C1FB401B0228B7D9032003B0F0BDFEF70C
:104B6000B9FB801B02287FF62BAFF5E7FEF7B2FBFF
:104B7000401B02287FF65FAFEEE7FEF7ABFB801B22
:104B800002287FF673AFE7E702F4407293423FF4E6
:104B900078AF2B6F134A0121C2F8401E23F44073F3
:104BA0000021C2F8401E2B672B6FD9077FF569AF34
:104BB000FEF790FB41F2883706462B6F9A073FF5C8
:104BC00060AFFEF787FB801BB842F6D9C4E7916857
:104BD00021F4F81165E7064B94F82C20C3F8E02186
:104BE00069E700BF00004742003802400070004003
:104BF0000010474238B50D460446C8B190F82C3035
:104C000003F0FF021BB980F82D20FDF767FA02239D
:104C100084F82C30211D206800F00EFD62682068A9
:104C2000294600F03FFD012384F82C30002038BDD8
:104C30000120FCE770B590F82C30022B05460E469B
:104C4000D8B212D000F0FB04012C0FD1022385F85A
:104C50002C30286800F05CFD3368022B06BF05236A
:104C600085F82C3085F82C40002070BD0120FCE731
:104C700038B590F82C30022B0446D8B20DD094F8F9
:104C80002C30012BDDB209D10223206884F82C30AE
:104C900000F062FD84F82C50002038BD0120FCE7B4
:104CA0002DE9F3471F46894690460446FEF712FB5E
:104CB0000A9D3D442D1AFEF70DFB264B1E68C6F3D8
:104CC000CB366E43824601962268936839EA030325
:104CD0000CBF01230023434501D100202EE07B1CA3
:104CE000F3D0FEF7F7FAA0EB0A00A84229D3236815
:104CF0005A6822F0E0025A606268B2F5827F0AD1F7
:104D0000A268B2F5004F02D0B2F5806F03D11A68E5
:104D100022F040021A60A26AB2F5005F07D11A6859
:104D200022F400521A601A6842F400521A600123F9
:104D300084F85130002384F85030032002B0BDE8DD
:104D4000F087019A019B002A03F1FF33019308BF0A
:104D50001546B9E774000020F0B585B00B46009207
:104D60000E461746022101220446FFF799FF054629
:104D700028B1636D43F020036365032515E0124BF2
:104D80001868124BB0FBF3F04FF47A735843636822
:104D90000390B3F5827F0BD1009733462A468021DA
:104DA0002046FFF77DFF0028E3D1284605B0F0BD7F
:104DB000039B002BF9D0039B013B039323689B6863
:104DC0001B06F5D4F1E700BF7400002000366E0129
:104DD00037B50B464168B1F5827F044608D0009292
:104DE00001210022FFF75CFFD0B9002003B030BDE5
:104DF0008168B1F5004F02D0B1F5806F07D1256809
:104E00002868B1F5806F20F04000286004D000923F
:104E1000802100222046E5E7009201210022F9E7E7
:104E2000636D43F0200363650320DFE710B504469C
:104E3000002855D0436A002B4ED14268B2F5827FDC
:104E400000D0C3610023A36294F8513003F0FF0245
:104E500023B984F850202046FDF70AF92168A0689C
:104E6000A269022384F851300B6823F040030B60E1
:104E7000636800F4044003F482730343E06800F4C1
:104E800000600343206900F002000343606900F002
:104E90000100034302F400700343E06900F03800AE
:104EA0000343206A00F080000343A06A00F400502E
:104EB00003430B60636A120C03F0100302F0040258
:104EC0001A434A60CB6923F40063CB6100200123BD
:104ED000606584F8513010BD0023C0E90433B1E7A8
:104EE0000120F8E72DE9F74304461F460D4690469A
:104EF000FEF7F0F994F85130012B8146D8B240F01A
:104F00009F80002D74D0B8F1000F71D094F850300C
:104F1000012B00F09580032384F851300023636552
:104F2000C4E91033A4F83680A363A387E387A3689A
:104F3000266884F85000B3F5004F2563A4F8348048
:104F400007D1336823F040033360336843F4804370
:104F500033603368E2685B065EBF336843F040034A
:104F60003360B2F5006F636845D113B1B8F1010F3A
:104F700007D135F8023BF3602563E38E013B9BB21A
:104F8000E386E38E9BB2D3B94A4639462046FFF703
:104F9000E3FE002851D1A36833B901932368DA688E
:104FA00001929B680193019B012384F85130606D4D
:104FB0000023C01A84F8503018BF012018E022687E
:104FC0009368980705D5236B33F8021BD1602363E0
:104FD000D3E7FEF77FF9A0EB0900B842D1D3791CE3
:104FE000CFD0012384F85130002384F850300320BF
:104FF00003B0BDE8F08313B1B8F1010F08D12B78ED
:105000003373236B01332363E38E013B9BB2E3864F
:10501000E38E9BB2002BB7D023689A68920703D522
:10502000226B12781A73ECE7FEF754F9A0EB090033
:10503000B842EDD37B1CEBD0D3E720236365AAE70E
:105040000220D5E72DE9F74304460D4691461E465A
:10505000DDF82880FEF73EF994F851306268012BA4
:105060000746D9B20AD0B2F5827F40F0E580A36846
:10507000002B40F0E180042940F0DE80002D4BD071
:10508000B9F1000F48D0002E46D094F85030012BD3
:1050900000F0D280012384F8503094F85130C4F8E5
:1050A0003890042B1CBF052384F85130002363651E
:1050B000C4E910332368E687E6861968A68749069F
:1050C00058BF1968256358BF41F04001A68658BFF4
:1050D0001960E168B1F5006F55D10AB1012E07D111
:1050E00035F8022BDA60E38E2563013B9BB2E38641
:1050F0000125E38E9BB28BB9E38F9BB273B93A461D
:1051000041462046FFF728FE002800F0818020233A
:105110006365002384F85030012031E021688B68FA
:105120009A070DD5E38E9BB253B145B1236B33F88B
:10513000022BCA602363E38E013B9BB2E38600250A
:105140008A6812F001020CD0E38F9BB24BB1A36BC3
:10515000C96823F8021BA363E38F013B9BB2E3877B
:105160001546FEF7B7F8C01B4045C2D3B8F1FF3F64
:10517000BFD0012384F85130002384F8503003203D
:1051800003B0BDE8F0830AB1012E08D12A781A7362
:10519000236B01332363E38E013B9BB2E38601253E
:1051A0002DE0226893689B070ED5E38E9BB25BB11E
:1051B0004DB1236B1B781373236B01332363E38E91
:1051C000013B9BB2E38600252268916811F0010142
:1051D0000DD0E38F9BB253B1A36BD2681A70A36B4F
:1051E0000133A363E38F013B9BB2E3870D46FEF7D8
:1051F00071F8C01B404502D3B8F1FF3FB9D1E38E2F
:105200009BB2002BCDD1E38F9BB2002BC9D176E7A7
:10521000A36833B901932368DA6801929B6801930C
:10522000019B012384F85130606D0023C01A84F87B
:10523000503018BF0120A3E70220A1E72DE9F74372
:105240001E4690F85130012B044689461746DDB2C0
:1052500004D00225284603B0BDE8F0834368B3F5C7
:10526000827F0BD183684BB9042380F851301346F9
:1052700000960A46FFF7E6FE0546EBE7FEF72AF83A
:105280008046B9F1000FE5D0002FE3D094F85030FC
:10529000012BDED0A268C4F838900123002584F8E1
:1052A0005030B2F5004F4FF0040384F85130C4E998
:1052B000105565652368E787A7872563A586E5867A
:1052C00007D11A6822F040021A601A6822F480425C
:1052D0001A601A6855065EBF1A6842F040021A60EA
:1052E000E368F3B1E38F9BB2FBB123689A68D207FE
:1052F0003CD5DA68A36B23F8022BA363E38F013B51
:105300009BB2E387EEE723689A68D0071ED5A26BAD
:105310001B7B1370A36B0133A363E38F013B9BB231
:10532000E387E38F9BB2002BEDD142463146204606
:10533000FFF74EFD18BB012384F85130656D002343
:10534000ED1A84F8503018BF012583E7FDF7C2FF3E
:10535000A0EB0800B042E4D3711CE2D0012384F832
:105360005130002384F85030032573E7FDF7B2FF76
:10537000A0EB0800B042B5D3731CB3D0EEE72023F6
:105380006365D8E77047000090F83D30012B30D1BD
:10539000022380F83D300368DA6842F00102DA60E7
:1053A000154A93421AD0B3F1804F17D0A2F57C4230
:1053B000934213D002F5806293420FD002F58062CF
:1053C00093420BD002F57842934207D002F5705217
:1053D000934203D0A2F59432934204D19A6802F02A
:1053E0000702062A03D01A6842F001021A60002060
:1053F00070470120704700BF0000014070477047B0
:1054000070477047036870B5DD681E69B1070446D0
:105410000DD5AA070BD56FF002021A61012202779F
:105420009B699B0769D0FFF7EAFF00232377710789
:1054300010D56A070ED523686FF004021A610222A4
:1054400022779B6913F4407F20465CD0FFF7D7FF9B
:105450000023237733070FD528070DD523686FF076
:1054600008021A6104222277DB699907204650D08E
:10547000FFF7C5FF00232377F20610D5EB060ED504
:1054800023686FF010021A6108222277DB6913F497
:10549000407F204643D0FFF7B2FF00232377F00779
:1054A00008D5E90706D523686FF001021A61204686
:1054B000FCF740FC320608D52B0606D523686FF0B2
:1054C00080021A61204600F0B6F8700608D5690619
:1054D00006D523686FF040021A612046FFF791FF5E
:1054E000B20622D5AB0620D523686FF020022046F5
:1054F0001A61BDE8704000F09DB8FFF77FFF2046BD
:10550000FFF77EFF91E7FFF779FF2046FFF778FF6F
:105510009EE7FFF773FF2046FFF772FFAAE7FFF74A
:105520006DFF2046FFF76CFFB7E770BD294A03689F
:10553000904212D0B0F1804F0FD0A2F57C42904241
:105540000BD002F58062904207D002F58062904253
:1055500003D002F57842904208D14A6823F07003E4
:105560001343CA6823F44073134316E01A4A904267
:10557000F7D002F580629042F3D002F5806290424B
:10558000EFD0A2F598329042EBD002F580629042C3
:10559000E7D002F580629042E3D04A6923F08003AD
:1055A000134303608B68C3620B688362094B9842A4
:1055B00003D003F58063984201D10B690363012393
:1055C00043610369DB0742BF036923F00103036101
:1055D000704700BF000001400040014010B5044684
:1055E00030B390F83D3003F0FF021BB980F83C2047
:1055F000FFF7C8FE0223206884F83D30211DFFF725
:1056000095FF012384F84630002084F83E3084F86A
:105610003F3084F8403084F8413084F8423084F8D8
:10562000433084F8443084F8453084F83D3010BD70
:105630000120FCE7704770472DE9F041D1E90738B8
:10564000D1E9012CD1E90376D1E90554D1F824E060
:10565000096843EA080381B943EA0E03134343EAA6
:105660000C033B43016833432B4323436FF30E0189
:105670000B4303600020BDE8F081016843EA0E039C
:1056800021F4F8410B43036042EA0C0341683B43B9
:1056900033432B4321F4FF42234322F07F02134381
:1056A0004360E7E7CB6803F1FF3C4B69F0B54C681A
:1056B0008F680E698D690968013B1B05013C013F3C
:1056C000013E013D24013F0236042D06013943EA23
:1056D0000C335AB90B43234382683B4333432B4378
:1056E00002F07042134383600020F0BD826822F410
:1056F000700222F470421343836044EA0703C268D5
:105700000B4333432B4302F070421343C360EBE778
:1057100070B5044615460269D1E900300343C868F4
:105720006FF3150243EA402313438A68013A43EAC0
:1057300042132361FDF7CEFD0646A06910F020005C
:1057400003D06B1CF9D00DB9032070BDFDF7C2FD6D
:10575000801BA842F1D9F7E743696FF34D0343EA91
:10576000410343610020704708B54FF0E0231B69F7
:1057700001F01CFE012803D0BDE8084000F0EABBA0
:1057800008BD0000EFF305832BB9064B186828B954
:1057900001221A6070476FF0050070474FF0FF302C
:1057A000704700BFE01F002010B5EFF305845CB91F
:1057B000084B1A68012A0AD1074AD47702221A60D4
:1057C00001F072FB204610BD6FF00500FBE74FF0C3
:1057D000FF30F8E7E01F002000ED00E0F0B587B0F3
:1057E000144600220B460592EFF30582FAB9F0B198
:1057F00054B3A56925B1691E372902D9002017E0E5
:1058000018256268D207F9D466699EB1B208D4E956
:10581000027C216887B1BCF15F0F08D9246934B1DB
:105820002EB1CDE90147009501F0D7FA0590059812
:1058300007B0F0BD8022EAE7BCF1000FF7D1246980
:10584000002CF4D10C4601E01825802205A9CDE9F1
:10585000005192B2214601F0F8FA01281CBF002342
:105860000593E4E708B5EFF3058222B908B101F02A
:1058700079FC002008BD6FF00500FBE7F7B5044692
:105880000E461546EFF3058242B938B1884205D37A
:1058900055B1D5E902372BB14F2F22D8002420462D
:1058A00003B0F0BD002FF9D1012C0CD020463146B9
:1058B00000F088FD04460028F0D085B9294620462E
:1058C00001F0C6F8EBE703220021012000F031FDD2
:1058D0000EE01A4600F054FD04460028DED02D6884
:1058E000ECE70128F5D103210091114600F0D3FC2B
:1058F00004460028D2D0002EDFD000231A461946D5
:1059000000F07EFD0128D8D0204601F0CBF8C5E795
:1059100013B50C4628B3EFF30583CBB109BB01AA3D
:10592000019101F028F8012803D06FF0020002B0C5
:1059300010BD019B0BB90020F9E74FF0E0234FF0B9
:105940008052C3F8042DBFF34F8FBFF36F8FF2E780
:1059500000F054FF0128EED0002CE6D06FF00100DB
:10596000E5E76FF00300E2E707B518B3EFF305834F
:10597000CBB1002301A9019300F051FE012804D00E
:105980006FF0020003B05DF804FB019B4BB14FF0D8
:10599000E0234FF08052C3F8042DBFF34F8FBFF3C5
:1059A0006F8F0020EEE71A46194600F029FD012806
:1059B000F7D0E5E76FF00300E4E730B1EFF30583DC
:1059C0000BB101F038B801F023B87047F7B50546C0
:1059D0000E461446EFF305871FB10025284603B095
:1059E000F0BD0028F9D00029F7D0DAB1D2E90232AF
:1059F00083B14F2AF1D92269002AEED066694D435E
:105A0000AE42EAD3009700F046FC05460028E4D0F9
:105A1000246811E0002AE0D12369002BDDD16369FD
:105A2000002BDAD128460022314600F082FC0546E0
:105A30000028D2D0002CEBD12146284601F008F8EE
:105A4000CCE773B51C46EFF30586DEB138B331B34E
:105A50002BBB01AA019300F085FD012803D06FF054
:105A6000020002B070BD019B0BB90020F9E74FF0B6
:105A7000E0234FF08052C3F8042DBFF34F8FBFF3E4
:105A80006F8FF2E758B151B13346224600F0B8FCAF
:105A90000128EAD0002CE2D06FF00100E1E76FF0BE
:105AA0000300DEE737B51C46EFF30583DBB130B307
:105AB00029B324BB01AA019400F05DFF012803D0A3
:105AC0006FF0020003B030BD019B0BB90020F9E775
:105AD0004FF0E0234FF08052C3F8042DBFF34F8FF7
